:100000000C9486000C94B7000C94B7000C94B700C5
:100010000C94B7000C94B7000C94B7000C94B70084
:100020000C94B7000C94B7000C94B7000C94B70074
:100030000C94B7000C94B7000C94B7000C94B70064
:100040000C94B7000C94B7000C94B7000C94B70054
:100050000C94B7000C94B7000C94B7000C944602B3
:100060000C94B7000C94BA020C9490020C94B70054
:100070000C94B7000C94B7000C94B7000C94B70024
:100080000C94B7000C94B7000C94B7000C94B70014
:100090000C94B7000C94B7000C94B7000C94B70004
:1000A0000C94B7000C94B7000C94B7000C94B700F4
:1000B0000C94B7000C94B7000C94B7000C94B700E4
:1000C0000C94B7000C94B7000C94B7000C94B700D4
:1000D0000C94B7000C94B7000C94B7000C94B700C4
:1000E0000C94B7000C94B9000C94E8000C949701A0
:1000F0000C9419010C94F0020C9448040C94F70031
:100100000C9450010C940B01F002480411241FBE02
:10011000CFEFD1E2DEBFCDBF00E00CBF12E0A0E028
:10012000B2E0E6E2FDE000E00BBF02C007900D92F6
:10013000A632B107D9F722E0A6E2B2E001C01D92D3
:10014000A73DB207E1F710E0C5E8D0E000E006C047
:1001500021970109802FFE010E944E04C438D10767
:1001600080E00807A9F70E942B030C9481060C94E9
:100170000000CF92DF92EF92FF920F931F93CF93E5
:10018000DF936C017A018B01C0E0D0E0CE15DF0572
:1001900089F0D8016D918D01D601ED91FC9101900E
:1001A000F081E02DC6011995892B11F47E0102C062
:1001B0002196ECCFC701DF91CF911F910F91FF9056
:1001C000EF90DF90CF900895089580E090E008953B
:1001D000FC01538D448D252F30E0842F90E0821B4D
:1001E000930B541710F0CF96089501970895FC01D2
:1001F000918D828D981761F0828DDF01A80FB11D5E
:100200005D968C91928D9F5F9F73928F90E0089581
:100210008FEF9FEF0895FC01918D828D981731F03B
:10022000828DE80FF11D858D90E008958FEF9FEF8F
:100230000895FC01918D228D892F90E0805C9F4F65
:10024000821B91098F739927089580E392E00E94A1
:10025000190121E0892B09F420E0822F0895FC0187
:10026000848DDF01A80FB11DA35ABF4F2C91848D3F
:1002700090E001968F739927848FA689B7892C9374
:10028000A089B1898C9180648C93938D848D98130F
:1002900006C00288F389E02D80818F7D80830895D8
:1002A000EF92FF920F931F93CF93DF93EC0181E0C6
:1002B000888F9B8D8C8D981305C0E889F989808182
:1002C00085FD24C0F62E0B8D10E00F5F1F4F0F73BE
:1002D0001127E02E8C8DE8120CC00FB607FCFACF68
:1002E000E889F989808185FFF5CFCE010E942F0131
:1002F000F1CF8B8DFE01E80FF11DE35AFF4FF08225
:100300000B8FEA89FB898081806207C0EE89FF89B3
:100310006083E889F98980818064808381E090E04E
:10032000DF91CF911F910F91FF90EF900895CF93A0
:10033000DF93EC01888D8823C9F0EA89FB898081ED
:1003400085FD05C0A889B9898C9186FD0FC00FB6BF
:1003500007FCF5CF808185FFF2CFA889B9898C9100
:1003600085FFEDCFCE010E942F01E7CFDF91CF9126
:10037000089580E090E0892B21F00E9425018111F1
:1003800025C080E090E0892B41F080E090E0892B4F
:1003900021F00E94000081111CC080E090E0892BB8
:1003A00041F080E090E0892B21F00E940000811153
:1003B00013C080E090E0892BA1F080E090E0892BD1
:1003C00081F00E94000081110AC008950E9400007F
:1003D000D8CF0E940000E1CF0E940000EACF0C9429
:1003E000000008950E946C060F931F93CF93DF9334
:1003F000EC0188819981009729F02A813B81261799
:10040000370788F48B016F5F7F4F0E948305009749
:1004100061F0998388831B830A832C813D81232B80
:1004200011F4FC01108281E001C080E0DF91CF91E6
:100430001F910F910895EF92FF920F931F93CF9307
:10044000DF93EC017B018A01BA010E94F40128814B
:10045000398181110DC02115310519F0C9010E94A2
:10046000EB04198218821D821C821B821A8206C02C
:100470001D830C83B701C9010E947A06CE01DF916A
:10048000CF911F910F91FF90EF9008951F920F92BF
:100490000FB60F9211242F933F938F939F93AF9397
:1004A000BF9380912C0290912D02A0912E02B091C9
:1004B0002F0230912B0223E0230F2D3720F40196D9
:1004C000A11DB11D05C026E8230F0296A11DB11D77
:1004D00020932B0280932C0290932D02A0932E0246
:1004E000B0932F028091270290912802A0912902B7
:1004F000B0912A020196A11DB11D8093270290930D
:100500002802A0932902B0932A02BF91AF919F9134
:100510008F913F912F910F900FBE0F901F901895C4
:100520001F920F920FB60F9211240BB60F922F93BA
:100530003F934F935F936F937F938F939F93AF936B
:10054000BF93EF93FF9380E392E00E942F01FF910E
:10055000EF91BF91AF919F918F917F916F915F913B
:100560004F913F912F910F900BBE0F900FBE0F90A8
:100570001F9018951F920F920FB60F9211240BB671
:100580000F922F938F939F93EF93FF93E0914002ED
:10059000F09141028081E0914602F091470282FD94
:1005A00012C09081809149028F5F8F7320914A021F
:1005B000821751F0E0914902F0E0E05DFD4F958F28
:1005C0008093490201C08081FF91EF919F918F91AB
:1005D0002F910F900BBE0F900FBE0F901F9018958C
:1005E000E0E3F2E01382128288EE93E0A0E0B0E054
:1005F00084839583A683B7838AE092E09183808386
:1006000085EC90E09587848784EC90E097878687D7
:1006100080EC90E0918B808B81EC90E0938B828BCF
:1006200082EC90E0958B848B86EC90E0978B868BA8
:10063000118E128E138E148EEDECF2E01182108268
:10064000138212821582148240E050E064E272E06C
:10065000CF010C941B02CF93DF931F921F92CDB753
:10066000DEB7789484B5826084BD84B5816084BD32
:1006700085B5826085BD85B5816085BD80916E0040
:10068000816080936E001092810080918100826071
:1006900080938100809181008160809381008091AE
:1006A00080008160809380008091B100846080939D
:1006B000B1008091B00081608093B0008091910082
:1006C000826080939100809191008160809391007D
:1006D000809190008160809390008091A100826061
:1006E0008093A1008091A10081608093A1008091FE
:1006F000A00081608093A00080912101826080939E
:10070000210180912101816080932101809120014C
:1007100081608093200180917A00846080937A00C8
:1007200080917A00826080937A0080917A00816063
:1007300080937A0080917A00806880937A0010928A
:10074000C100E0914002F091410282E08083E0919B
:100750003C02F0913D021082E0913E02F0913F0296
:1007600080E1808310924802E0914402F0914502BA
:1007700086E08083E0914202F091430280818061B3
:100780008083E0914202F0914302808188608083FF
:10079000E0914202F0914302808180688083E09181
:1007A0004202F091430280818F7D808349E050E0D6
:1007B00068E172E080E392E00E94B90042E050E01C
:1007C00062E272E080E392E00E94B900EE24E394DA
:1007D00080E392E00E941901892B09F456C080E35E
:1007E00092E00E941901181619066CF580E392E058
:1007F0000E94F700F82E89831A820091D10210918D
:10080000D2020F5F1F4FB8018DEC92E00E94F401FD
:10081000882399F02091CD023091CE028091D102AF
:100820009091D202BE016F5F7F4F820F931F0E9493
:100830007A061093D2020093D1028AE0F812CFCF49
:10084000E0922602CCCF809126028823F1F04091DD
:10085000D1025091D2026091CD027091CE0280E31C
:1008600092E00E94B90042E050E062E272E080E370
:1008700092E00E94B90040E050E064E272E08DEC4A
:1008800092E00E941B02109226020E94B901A0CFA2
:100890008091CD029091CE020C94EB04EE0FFF1FDD
:1008A000881F8BBF0790F691E02D1994CF93DF93AB
:1008B0008230910510F482E090E0E091D502F09151
:1008C000D60220E030E0C0E0D0E0309711F1408166
:1008D000518148175907C0F04817590761F48281C0
:1008E0009381209719F09B838A832BC09093D60223
:1008F0008093D50226C02115310519F04217530700
:1009000018F49A01BE01DF01EF010280F381E02DAE
:10091000DCCF2115310509F1281B390B24303105B5
:1009200090F412968D919C9113976115710521F0A9
:10093000FB019383828304C09093D6028093D502F7
:10094000FD01329644C0FD01E20FF31F81939193A4
:10095000225031092D933C933AC02091D30230911B
:10096000D402232B41F420910202309103023093F0
:10097000D4022093D302209100023091010221156C
:10098000310541F42DB73EB7409104025091050264
:10099000241B350BE091D302F091D402E217F30748
:1009A000A0F42E1B3F0B2817390778F0AC014E5FDF
:1009B0005F4F2417350748F04E0F5F1F5093D40246
:1009C0004093D3028193919302C0E0E0F0E0CF0125
:1009D000DF91CF9108950F931F93CF93DF930097EB
:1009E00009F48CC0FC013297138212820091D50267
:1009F0001091D6020115110581F420813181820FF9
:100A0000931F2091D3023091D4022817390779F52A
:100A1000F093D402E093D30271C0D80140E050E0DB
:100A2000AE17BF0750F412962D913C911397AD016C
:100A30002115310509F1D901F3CF9D01DA01338385
:100A4000228360817181860F971F8217930769F453
:100A5000EC0128813981260F371F2E5F3F4F3183EC
:100A600020838A819B8193838283452B29F4F09391
:100A7000D602E093D50242C01396FC93EE931297F0
:100A8000ED01499159919E01240F351FE217F3079B
:100A900071F480819181840F951F029611969C9329
:100AA0008E938281938113969C938E931297E0E0AC
:100AB000F0E0D80112968D919C911397009719F050
:100AC000F8018C01F6CF8D919C9198012E5F3F4FDC
:100AD000820F931F2091D3023091D4022817390737
:100AE00069F4309729F41092D6021092D50202C010
:100AF000138212821093D4020093D302DF91CF911C
:100B00001F910F9108956F927F928F929F92AF9253
:100B1000BF92CF92DF92EF92FF920F931F93CF93EA
:100B2000DF93EC01009789F4CB01DF91CF911F9106
:100B30000F91FF90EF90DF90CF90BF90AF909F907C
:100B40008F907F906F900C945604FC01E60FF71F76
:100B50009C0122503109E217F30708F4ACC0D90117
:100B60000D911C91119706171707B0F0053011056C
:100B700008F49FC0C80104978617970708F499C026
:100B800002501109061B170B019311936D937C936F
:100B9000CF010E94EB048DC05B01A01AB10A4C0189
:100BA000800E911EA091D502B091D60240E050E097
:100BB000E12CF12C109709F44AC0A815B905D1F51C
:100BC0006D907C901197630182E0C80ED11CCA140D
:100BD000DB0480F1A3014A195B096A0182E0C80EB7
:100BE000D11C1296BC9012971396AC91B5E0CB161F
:100BF000D10440F0B282A38351834083D9016D9325
:100C00007C930AC00E5F1F4FC301800F911FF90133
:100C100091838083EB2DFA2FE114F10431F0D70199
:100C20001396FC93EE93129744C0F093D602E09390
:100C3000D5023FC08D919C9111974817590708F430
:100C4000AC017D0112960D90BC91A02DB3CF809187
:100C5000D3029091D40288159905E1F446175707FD
:100C6000C8F48091000290910102009741F48DB781
:100C70009EB74091040250910502841B950BE81722
:100C8000F907C8F4F093D402E093D302F901718319
:100C900060830FC0CB010E9456047C01009759F07D
:100CA000A801BE010E947106CE010E94EB04C7019B
:100CB00004C0CE0102C080E090E0DF91CF911F918F
:100CC0000F91FF90EF90DF90CF90BF90AF909F90EB
:100CD0008F907F906F90089581E090E0F8940C944D
:100CE0008106FB01DC0102C001900D924150504091
:100CF000D8F70895FB01DC0101900D920020E1F787
:100D0000089510E0C5E8D0E000E006C0802FFE01A5
:100D10000E944E042196011DC638D10780E00807C5
:060D2000A9F7F894FFCFD3
:100D26000000D7028000000000005001B900E80072
:100D360097011901F7000B015374617274696E67AC
:060D460021000D0A00006F
:00000001FF
